:100000000C9448000C9458000C9458000C94580020
:100010000C94E8000C9458000C9458000C94580070
:100020000C9458000C9458000C9458000C945800F0
:100030000C94F9000C9458000C9458000C9458003F
:100040000C9458000C9458000C9458000C945800D0
:100050000C9458000C9458000C9458000C945800C0
:100060000C9458000C9458000C9458000C945800B0
:100070000C9458000C9458000C9458000C945800A0
:100080000C9458000C9458000C9458000C94580090
:1000900011241FBECFEFCDBFDFE3DEBF2CE3A0E016
:1000A000BCE301C01D92AB36B207E1F703D0E4C157
:1000B000A7CF8AC1FEDF8CE794E402D002D0FECF46
:1000C0000895CF938091093C833021F56091053CE0
:1000D0007091063C8091073C9091083C23E030E011
:1000E00040E050E0A7D160E876E988E990E0A2D14D
:1000F0002093013C3093023C4093033C5093043CDA
:100100001092053C1092063C1092073C1092083C5D
:100110001092093C8091013C9091023CA091033CDB
:10012000B091043C813C944DA140B105E8F480912C
:10013000013C9091023CA091033CB091043C81377A
:100140009141A140B10590F48091013C9091023C15
:10015000A091033CB091043C893B9848A105B105AE
:1001600038F4C091003C05C0C4E003C0C2E001C047
:10017000C1E08091013C9091023CA091033CB09180
:10018000043C893B9848A105B10510F00F9A01C0C5
:100190000F988091003CC81759F0C23021F0C4304C
:1001A00021F4A5D003C08AD001C077D0C093003C11
:1001B00080914A3C813051F410924A3C1092013CAB
:1001C0001092023C1092033C1092043CCF9108958F
:1001D0001F920F920FB60F9211248F9381E080939C
:1001E0004A3C809353018F910F900FBE0F901F9048
:1001F00018951F920F920FB60F9211242F933F93D1
:100200004F935F936F937F938F938091093C8330DB
:10021000E0F420918C0A30918D0A4091053C509178
:10022000063C6091073C7091083C420F531F611DD2
:10023000711D4093053C5093063C6093073C7093BE
:10024000083C8F5F8093093C03C081E08093860A5D
:100250008F917F916F915F914F913F912F910F906F
:100260000FBE0F901F90189580E00895E0ECF1E02C
:10027000108210861486108A148A11861586118AB7
:10028000158A12861686128A168A13861786138A8C
:10029000178A1182128280E00895E8DFE0ECF1E035
:1002A000118212822FE0238795E0928781E4808774
:1002B000238B928B808B808380E00895D7DFE0ECE6
:1002C000F1E081E08183128295E5938795E0928742
:1002D000818783E480878FEF8787158681E4848711
:1002E0002FE0238B928B808B808380E00895BEDF8C
:1002F000E0ECF1E081E08183828355E5538745E0BE
:100300004287818733E430872FEF278791E49487F2
:10031000538B428B818B308B278B948B908380E027
:100320000895E5CF41E068ED81E690E060D080E09F
:100330000895789480E00895E0E1F4E08081886099
:100340008193E83184E0F807C9F7E0E3F4E08081C5
:1003500088608193E83384E0F807C9F7E0E5F4E0CA
:10036000808188608193E83584E0F807C9F7E0E789
:10037000F4E0808188608193E83784E0F807C9F76A
:10038000E0E9F4E0808188608193E83984E0F8074F
:10039000C9F7E0EBF4E0808188608193E83B84E07A
:1003A000F807C9F708950298E2E1F4E08081877FB9
:1003B00080830B98039A6298E2E7F4E08081877F5C
:1003C00080836B98639AADCFB7DF0F98079AAADF47
:1003D00012D025D004D0E7DFACDF1FD045CFE0E856
:1003E000F1E085E4808B81E084AB80E00895FC013E
:1003F00064BF40830895809141018111FCCF109228
:100400004701809151018111FCCF81E78093500118
:1004100081E08093520180E0089580E00895E0E853
:10042000FAE083E0818381E0808784838583808311
:1004300080E00895A1E21A2EAA1BBB1BFD010DC08E
:10044000AA1FBB1FEE1FFF1FA217B307E407F50784
:1004500020F0A21BB30BE40BF50B661F771F881F60
:10046000991F1A9469F760957095809590959B01F6
:0C047000AC01BD01CF010895F894FFCF4E
:10047C000D0A48694669426572727920414D5033C4
:10048C000D0A46572056312E302E300D0A2863297E
:08049C0020323032320D0A005B
:00000001FF
